{
    "_format": "hh-sol-artifact-1",
    "contractName": "CrowdFunding",
    "sourceName": "contracts/CrowdFunding.sol",
    "abi": [
        {
            "inputs": [],
            "stateMutability": "nonpayable",
            "type": "constructor"
        },
        {
            "inputs": [],
            "name": "getUsers",
            "outputs": [
                {
                    "components": [
                        {
                            "internalType": "string",
                            "name": "name",
                            "type": "string"
                        },
                        {
                            "internalType": "string",
                            "name": "message",
                            "type": "string"
                        },
                        {
                            "internalType": "uint256",
                            "name": "timestamp",
                            "type": "uint256"
                        },
                        {
                            "internalType": "address",
                            "name": "from",
                            "type": "address"
                        }
                    ],
                    "internalType": "struct CrowdFunding.users[]",
                    "name": "",
                    "type": "tuple[]"
                }
            ],
            "stateMutability": "view",
            "type": "function"
        },
        {
            "inputs": [
                {
                    "internalType": "string",
                    "name": "name",
                    "type": "string"
                },
                {
                    "internalType": "string",
                    "name": "message",
                    "type": "string"
                }
            ],
            "name": "payment",
            "outputs": [],
            "stateMutability": "payable",
            "type": "function"
        }
    ],
    "bytecode": "0x608060405234801561001057600080fd5b50336000806101000a81548173ffffffffffffffffffffffffffffffffffffffff021916908373ffffffffffffffffffffffffffffffffffffffff160217905550610b70806100606000396000f3fe6080604052600436106100285760003560e01c8062ce8e3e1461002d5780638721fd9314610058575b600080fd5b34801561003957600080fd5b50610042610074565b60405161004f91906105fc565b60405180910390f35b610072600480360381019061006d9190610767565b610257565b005b60606001805480602002602001604051908101604052809291908181526020016000905b8282101561024e57838290600052602060002090600402016040518060800160405290816000820180546100cb9061080e565b80601f01602080910402602001604051908101604052809291908181526020018280546100f79061080e565b80156101445780601f1061011957610100808354040283529160200191610144565b820191906000526020600020905b81548152906001019060200180831161012757829003601f168201915b5050505050815260200160018201805461015d9061080e565b80601f01602080910402602001604051908101604052809291908181526020018280546101899061080e565b80156101d65780601f106101ab576101008083540402835291602001916101d6565b820191906000526020600020905b8154815290600101906020018083116101b957829003601f168201915b50505050508152602001600282015481526020016003820160009054906101000a900473ffffffffffffffffffffffffffffffffffffffff1673ffffffffffffffffffffffffffffffffffffffff1673ffffffffffffffffffffffffffffffffffffffff168152505081526020019060010190610098565b50505050905090565b6000341161029a576040517f08c379a00000000000000000000000000000000000000000000000000000000081526004016102919061089c565b60405180910390fd5b60008054906101000a900473ffffffffffffffffffffffffffffffffffffffff1673ffffffffffffffffffffffffffffffffffffffff166108fc349081150290604051600060405180830381858888f19350505050158015610300573d6000803e3d6000fd5b50600160405180608001604052808481526020018381526020014281526020013373ffffffffffffffffffffffffffffffffffffffff16815250908060018154018082558091505060019003906000526020600020906004020160009091909190915060008201518160000190816103789190610a68565b50602082015181600101908161038e9190610a68565b506040820151816002015560608201518160030160006101000a81548173ffffffffffffffffffffffffffffffffffffffff021916908373ffffffffffffffffffffffffffffffffffffffff16021790555050505050565b600081519050919050565b600082825260208201905092915050565b6000819050602082019050919050565b600081519050919050565b600082825260208201905092915050565b60005b8381101561044c578082015181840152602081019050610431565b60008484015250505050565b6000601f19601f8301169050919050565b600061047482610412565b61047e818561041d565b935061048e81856020860161042e565b61049781610458565b840191505092915050565b6000819050919050565b6104b5816104a2565b82525050565b600073ffffffffffffffffffffffffffffffffffffffff82169050919050565b60006104e6826104bb565b9050919050565b6104f6816104db565b82525050565b600060808301600083015184820360008601526105198282610469565b915050602083015184820360208601526105338282610469565b915050604083015161054860408601826104ac565b50606083015161055b60608601826104ed565b508091505092915050565b600061057283836104fc565b905092915050565b6000602082019050919050565b6000610592826103e6565b61059c81856103f1565b9350836020820285016105ae85610402565b8060005b858110156105ea57848403895281516105cb8582610566565b94506105d68361057a565b925060208a019950506001810190506105b2565b50829750879550505050505092915050565b600060208201905081810360008301526106168184610587565b905092915050565b6000604051905090565b600080fd5b600080fd5b600080fd5b600080fd5b7f4e487b7100000000000000000000000000000000000000000000000000000000600052604160045260246000fd5b61067482610458565b810181811067ffffffffffffffff821117156106935761069261063c565b5b80604052505050565b60006106a661061e565b90506106b2828261066b565b919050565b600067ffffffffffffffff8211156106d2576106d161063c565b5b6106db82610458565b9050602081019050919050565b82818337600083830152505050565b600061070a610705846106b7565b61069c565b90508281526020810184848401111561072657610725610637565b5b6107318482856106e8565b509392505050565b600082601f83011261074e5761074d610632565b5b813561075e8482602086016106f7565b91505092915050565b6000806040838503121561077e5761077d610628565b5b600083013567ffffffffffffffff81111561079c5761079b61062d565b5b6107a885828601610739565b925050602083013567ffffffffffffffff8111156107c9576107c861062d565b5b6107d585828601610739565b9150509250929050565b7f4e487b7100000000000000000000000000000000000000000000000000000000600052602260045260246000fd5b6000600282049050600182168061082657607f821691505b602082108103610839576108386107df565b5b50919050565b600082825260208201905092915050565b7f506c6561736520506179204d6f7265207468616e203020457468657200000000600082015250565b6000610886601c8361083f565b915061089182610850565b602082019050919050565b600060208201905081810360008301526108b581610879565b9050919050565b60008190508160005260206000209050919050565b60006020601f8301049050919050565b600082821b905092915050565b60006008830261091e7fffffffffffffffffffffffffffffffffffffffffffffffffffffffffffffffff826108e1565b61092886836108e1565b95508019841693508086168417925050509392505050565b6000819050919050565b600061096561096061095b846104a2565b610940565b6104a2565b9050919050565b6000819050919050565b61097f8361094a565b61099361098b8261096c565b8484546108ee565b825550505050565b600090565b6109a861099b565b6109b3818484610976565b505050565b5b818110156109d7576109cc6000826109a0565b6001810190506109b9565b5050565b601f821115610a1c576109ed816108bc565b6109f6846108d1565b81016020851015610a05578190505b610a19610a11856108d1565b8301826109b8565b50505b505050565b600082821c905092915050565b6000610a3f60001984600802610a21565b1980831691505092915050565b6000610a588383610a2e565b9150826002028217905092915050565b610a7182610412565b67ffffffffffffffff811115610a8a57610a8961063c565b5b610a94825461080e565b610a9f8282856109db565b600060209050601f831160018114610ad25760008415610ac0578287015190505b610aca8582610a4c565b865550610b32565b601f198416610ae0866108bc565b60005b82811015610b0857848901518255600182019150602085019450602081019050610ae3565b86831015610b255784890151610b21601f891682610a2e565b8355505b6001600288020188555050505b50505050505056fea26469706673582212204ab7dcb28127125bdf4998d5f7f19158bd3cb8d0c3c165c0882c087b66de3a6564736f6c63430008110033",
    "linkReferences": {},
    "deployedLinkReferences": {}
}